{
  "_format": "hh-sol-artifact-1",
  "contractName": "DBIPayment",
  "sourceName": "contracts/DBIPayment.sol",
  "abi": [
    {
      "inputs": [
        {
          "internalType": "address",
          "name": "token_",
          "type": "address"
        },
        {
          "internalType": "address",
          "name": "dbi_",
          "type": "address"
        },
        {
          "internalType": "uint256",
          "name": "paymentAmount_",
          "type": "uint256"
        }
      ],
      "stateMutability": "nonpayable",
      "type": "constructor"
    },
    {
      "anonymous": false,
      "inputs": [
        {
          "indexed": true,
          "internalType": "address",
          "name": "walletAddress",
          "type": "address"
        },
        {
          "indexed": false,
          "internalType": "uint256",
          "name": "amount",
          "type": "uint256"
        }
      ],
      "name": "DBIWithdrawn",
      "type": "event"
    },
    {
      "anonymous": false,
      "inputs": [
        {
          "indexed": true,
          "internalType": "address",
          "name": "previousOwner",
          "type": "address"
        },
        {
          "indexed": true,
          "internalType": "address",
          "name": "newOwner",
          "type": "address"
        }
      ],
      "name": "OwnershipTransferred",
      "type": "event"
    },
    {
      "stateMutability": "payable",
      "type": "fallback"
    },
    {
      "inputs": [],
      "name": "createNewCycle",
      "outputs": [],
      "stateMutability": "nonpayable",
      "type": "function"
    },
    {
      "inputs": [],
      "name": "cycleId",
      "outputs": [
        {
          "internalType": "uint256",
          "name": "_value",
          "type": "uint256"
        }
      ],
      "stateMutability": "view",
      "type": "function"
    },
    {
      "inputs": [],
      "name": "getTokenBalance",
      "outputs": [
        {
          "internalType": "uint256",
          "name": "",
          "type": "uint256"
        }
      ],
      "stateMutability": "view",
      "type": "function"
    },
    {
      "inputs": [],
      "name": "getWithdrawableAmount",
      "outputs": [
        {
          "internalType": "uint256",
          "name": "",
          "type": "uint256"
        }
      ],
      "stateMutability": "view",
      "type": "function"
    },
    {
      "inputs": [
        {
          "internalType": "uint256",
          "name": "",
          "type": "uint256"
        },
        {
          "internalType": "address",
          "name": "",
          "type": "address"
        }
      ],
      "name": "hasWithdrawn",
      "outputs": [
        {
          "internalType": "bool",
          "name": "",
          "type": "bool"
        }
      ],
      "stateMutability": "view",
      "type": "function"
    },
    {
      "inputs": [],
      "name": "owner",
      "outputs": [
        {
          "internalType": "address",
          "name": "",
          "type": "address"
        }
      ],
      "stateMutability": "view",
      "type": "function"
    },
    {
      "inputs": [],
      "name": "paymentAmount",
      "outputs": [
        {
          "internalType": "uint256",
          "name": "",
          "type": "uint256"
        }
      ],
      "stateMutability": "view",
      "type": "function"
    },
    {
      "inputs": [],
      "name": "renounceOwnership",
      "outputs": [],
      "stateMutability": "nonpayable",
      "type": "function"
    },
    {
      "inputs": [
        {
          "internalType": "address",
          "name": "newOwner",
          "type": "address"
        }
      ],
      "name": "transferOwnership",
      "outputs": [],
      "stateMutability": "nonpayable",
      "type": "function"
    },
    {
      "inputs": [
        {
          "internalType": "address",
          "name": "_admin",
          "type": "address"
        },
        {
          "internalType": "bool",
          "name": "isAdmin",
          "type": "bool"
        }
      ],
      "name": "updateAdmin",
      "outputs": [],
      "stateMutability": "nonpayable",
      "type": "function"
    },
    {
      "inputs": [],
      "name": "withdraw",
      "outputs": [],
      "stateMutability": "nonpayable",
      "type": "function"
    },
    {
      "stateMutability": "payable",
      "type": "receive"
    }
  ],
  "bytecode": "0x60c060405234801561001057600080fd5b506040516115393803806115398339818101604052606081101561003357600080fd5b81019080805190602001909291908051906020019092919080519060200190929190505050600061006861023060201b60201c565b9050806000806101000a81548173ffffffffffffffffffffffffffffffffffffffff021916908373ffffffffffffffffffffffffffffffffffffffff1602179055508073ffffffffffffffffffffffffffffffffffffffff16600073ffffffffffffffffffffffffffffffffffffffff167f8be0079c531659141344cd1fd0a4f28419497f9722a3daafe3b4186f6b6457e060405160405180910390a35060018081905550600073ffffffffffffffffffffffffffffffffffffffff168373ffffffffffffffffffffffffffffffffffffffff16141561014757600080fd5b6001600460003373ffffffffffffffffffffffffffffffffffffffff1673ffffffffffffffffffffffffffffffffffffffff16815260200190815260200160002060006101000a81548160ff0219169083151502179055508273ffffffffffffffffffffffffffffffffffffffff1660808173ffffffffffffffffffffffffffffffffffffffff1660601b815250508173ffffffffffffffffffffffffffffffffffffffff1660a08173ffffffffffffffffffffffffffffffffffffffff1660601b8152505080600281905550610228600361023860201b610d5f1760201c565b50505061024e565b600033905090565b6001816000016000828254019250508190555050565b60805160601c60a05160601c6112b36102866000398061037f528061099b5280610a4f5250806105bc52806108a852506112b36000f3fe6080604052600436106100a05760003560e01c806382b2e2571161006457806382b2e257146101765780638da5cb5b146101a157806390be10cc146101e257806394cec7a71461020d578063c35905c61461027e578063f2fde38b146102a9576100a7565b80633ccfd60b146100a957806362e0accb146100c0578063670a6fd9146100eb578063715018a61461014857806372a02b761461015f576100a7565b366100a757005b005b3480156100b557600080fd5b506100be6102fa565b005b3480156100cc57600080fd5b506100d561060a565b6040518082815260200191505060405180910390f35b3480156100f757600080fd5b506101466004803603604081101561010e57600080fd5b81019080803573ffffffffffffffffffffffffffffffffffffffff169060200190929190803515159060200190929190505050610616565b005b34801561015457600080fd5b5061015d6106ce565b005b34801561016b57600080fd5b5061017461083b565b005b34801561018257600080fd5b5061018b6108a4565b6040518082815260200191505060405180910390f35b3480156101ad57600080fd5b506101b661096d565b604051808273ffffffffffffffffffffffffffffffffffffffff16815260200191505060405180910390f35b3480156101ee57600080fd5b506101f7610996565b6040518082815260200191505060405180910390f35b34801561021957600080fd5b506102666004803603604081101561023057600080fd5b8101908080359060200190929190803573ffffffffffffffffffffffffffffffffffffffff169060200190929190505050610b38565b60405180821515815260200191505060405180910390f35b34801561028a57600080fd5b50610293610b67565b6040518082815260200191505060405180910390f35b3480156102b557600080fd5b506102f8600480360360208110156102cc57600080fd5b81019080803573ffffffffffffffffffffffffffffffffffffffff169060200190929190505050610b6d565b005b60026001541415610373576040517f08c379a000000000000000000000000000000000000000000000000000000000815260040180806020018281038252601f8152602001807f5265656e7472616e637947756172643a207265656e7472616e742063616c6c0081525060200191505060405180910390fd5b600260018190555060007f000000000000000000000000000000000000000000000000000000000000000073ffffffffffffffffffffffffffffffffffffffff166378a895676040518163ffffffff1660e01b815260040160206040518083038186803b1580156103e357600080fd5b505afa1580156103f7573d6000803e3d6000fd5b505050506040513d602081101561040d57600080fd5b810190808051906020019092919050505011610474576040517f08c379a00000000000000000000000000000000000000000000000000000000081526004018080602001828103825260228152602001806111e26022913960400191505060405180910390fd5b60001515600560006104866003610d75565b815260200190815260200160002060003373ffffffffffffffffffffffffffffffffffffffff1673ffffffffffffffffffffffffffffffffffffffff16815260200190815260200160002060009054906101000a900460ff16151514610537576040517f08c379a000000000000000000000000000000000000000000000000000000000815260040180806020018281038252602a81526020018061122a602a913960400191505060405180910390fd5b6000610541610996565b90506001600560006105536003610d75565b815260200190815260200160002060003373ffffffffffffffffffffffffffffffffffffffff1673ffffffffffffffffffffffffffffffffffffffff16815260200190815260200160002060006101000a81548160ff02191690831515021790555061060033827f000000000000000000000000000000000000000000000000000000000000000073ffffffffffffffffffffffffffffffffffffffff16610d839092919063ffffffff16565b5060018081905550565b60038060000154905081565b60011515600460003373ffffffffffffffffffffffffffffffffffffffff1673ffffffffffffffffffffffffffffffffffffffff16815260200190815260200160002060009054906101000a900460ff1615151461067357600080fd5b80600460008473ffffffffffffffffffffffffffffffffffffffff1673ffffffffffffffffffffffffffffffffffffffff16815260200190815260200160002060006101000a81548160ff0219169083151502179055505050565b6106d6610e25565b73ffffffffffffffffffffffffffffffffffffffff166106f461096d565b73ffffffffffffffffffffffffffffffffffffffff161461077d576040517f08c379a00000000000000000000000000000000000000000000000000000000081526004018080602001828103825260208152602001807f4f776e61626c653a2063616c6c6572206973206e6f7420746865206f776e657281525060200191505060405180910390fd5b600073ffffffffffffffffffffffffffffffffffffffff1660008054906101000a900473ffffffffffffffffffffffffffffffffffffffff1673ffffffffffffffffffffffffffffffffffffffff167f8be0079c531659141344cd1fd0a4f28419497f9722a3daafe3b4186f6b6457e060405160405180910390a360008060006101000a81548173ffffffffffffffffffffffffffffffffffffffff021916908373ffffffffffffffffffffffffffffffffffffffff160217905550565b60011515600460003373ffffffffffffffffffffffffffffffffffffffff1673ffffffffffffffffffffffffffffffffffffffff16815260200190815260200160002060009054906101000a900460ff1615151461089857600080fd5b6108a26003610d5f565b565b60007f000000000000000000000000000000000000000000000000000000000000000073ffffffffffffffffffffffffffffffffffffffff166370a08231306040518263ffffffff1660e01b8152600401808273ffffffffffffffffffffffffffffffffffffffff16815260200191505060206040518083038186803b15801561092d57600080fd5b505afa158015610941573d6000803e3d6000fd5b505050506040513d602081101561095757600080fd5b8101908080519060200190929190505050905090565b60008060009054906101000a900473ffffffffffffffffffffffffffffffffffffffff16905090565b6000807f000000000000000000000000000000000000000000000000000000000000000073ffffffffffffffffffffffffffffffffffffffff166378a895676040518163ffffffff1660e01b815260040160206040518083038186803b1580156109ff57600080fd5b505afa158015610a13573d6000803e3d6000fd5b505050506040513d6020811015610a2957600080fd5b81019080805190602001909291905050509050600080600190505b828111610b2b5760007f000000000000000000000000000000000000000000000000000000000000000073ffffffffffffffffffffffffffffffffffffffff1662fdd58e33846040518363ffffffff1660e01b8152600401808373ffffffffffffffffffffffffffffffffffffffff1681526020018281526020019250505060206040518083038186803b158015610adb57600080fd5b505afa158015610aef573d6000803e3d6000fd5b505050506040513d6020811015610b0557600080fd5b810190808051906020019092919050505090508083019250508080600101915050610a44565b5060025481029250505090565b60056020528160005260406000206020528060005260406000206000915091509054906101000a900460ff1681565b60025481565b610b75610e25565b73ffffffffffffffffffffffffffffffffffffffff16610b9361096d565b73ffffffffffffffffffffffffffffffffffffffff1614610c1c576040517f08c379a00000000000000000000000000000000000000000000000000000000081526004018080602001828103825260208152602001807f4f776e61626c653a2063616c6c6572206973206e6f7420746865206f776e657281525060200191505060405180910390fd5b600073ffffffffffffffffffffffffffffffffffffffff168173ffffffffffffffffffffffffffffffffffffffff161415610ca2576040517f08c379a00000000000000000000000000000000000000000000000000000000081526004018080602001828103825260268152602001806111bc6026913960400191505060405180910390fd5b8073ffffffffffffffffffffffffffffffffffffffff1660008054906101000a900473ffffffffffffffffffffffffffffffffffffffff1673ffffffffffffffffffffffffffffffffffffffff167f8be0079c531659141344cd1fd0a4f28419497f9722a3daafe3b4186f6b6457e060405160405180910390a3806000806101000a81548173ffffffffffffffffffffffffffffffffffffffff021916908373ffffffffffffffffffffffffffffffffffffffff16021790555050565b6001816000016000828254019250508190555050565b600081600001549050919050565b610e208363a9059cbb60e01b8484604051602401808373ffffffffffffffffffffffffffffffffffffffff16815260200182815260200192505050604051602081830303815290604052907bffffffffffffffffffffffffffffffffffffffffffffffffffffffff19166020820180517bffffffffffffffffffffffffffffffffffffffffffffffffffffffff8381831617835250505050610e2d565b505050565b600033905090565b6000610e8f826040518060400160405280602081526020017f5361666545524332303a206c6f772d6c6576656c2063616c6c206661696c65648152508573ffffffffffffffffffffffffffffffffffffffff16610f1c9092919063ffffffff16565b9050600081511115610f1757808060200190516020811015610eb057600080fd5b8101908080519060200190929190505050610f16576040517f08c379a000000000000000000000000000000000000000000000000000000000815260040180806020018281038252602a815260200180611254602a913960400191505060405180910390fd5b5b505050565b6060610f2b8484600085610f34565b90509392505050565b606082471015610f8f576040517f08c379a00000000000000000000000000000000000000000000000000000000081526004018080602001828103825260268152602001806112046026913960400191505060405180910390fd5b610f98856110dc565b61100a576040517f08c379a000000000000000000000000000000000000000000000000000000000815260040180806020018281038252601d8152602001807f416464726573733a2063616c6c20746f206e6f6e2d636f6e747261637400000081525060200191505060405180910390fd5b6000808673ffffffffffffffffffffffffffffffffffffffff1685876040518082805190602001908083835b602083106110595780518252602082019150602081019050602083039250611036565b6001836020036101000a03801982511681845116808217855250505050505090500191505060006040518083038185875af1925050503d80600081146110bb576040519150601f19603f3d011682016040523d82523d6000602084013e6110c0565b606091505b50915091506110d08282866110ef565b92505050949350505050565b600080823b905060008111915050919050565b606083156110ff578290506111b4565b6000835111156111125782518084602001fd5b816040517f08c379a00000000000000000000000000000000000000000000000000000000081526004018080602001828103825283818151815260200191508051906020019080838360005b8381101561117957808201518184015260208101905061115e565b50505050905090810190601f1680156111a65780820380516001836020036101000a031916815260200191505b509250505060405180910390fd5b939250505056fe4f776e61626c653a206e6577206f776e657220697320746865207a65726f20616464726573734e6f2044424920746f6b656e7320746f20656e61626c65207769746864726177616c416464726573733a20696e73756666696369656e742062616c616e636520666f722063616c6c596f75206861766520616c72656164792077697468647261776e2066726f6d2074686973206379636c655361666545524332303a204552433230206f7065726174696f6e20646964206e6f742073756363656564a2646970667358221220548d7513bc6d3703373ac713a517ebf5cef46cd408c1aadfbe937d19c018846564736f6c63430007060033",
  "linkReferences": {},
  "deployedLinkReferences": {}
}